:100000000C9472000C9493000C9493000C94930045
:100010000C9493000C9493000C9493000C94930014
:100020000C9493000C9493000C9493000C94930004
:100030000C9493000C9493000C9493000C949300F4
:100040000C9493000C9464030C9493000C94930010
:100050000C9493000C9493000C9493000C94C302A2
:100060000C9493000C9493000C9493000C949300C4
:100070000C9493000C9493000C9493000C949300B4
:100080000C9400020C9493000C9493000C94930035
:100090000C9493000C9493000C9493000C94930094
:1000A0000C9493000C9493000C9493000C94930084
:1000B0000C9493000C9493000C9493000C942504DE
:1000C0000C9493000C9493000C9493000C94930064
:1000D0000C9493000C9493000C9493000C94930054
:1000E0000C94930011241FBECFEFD1E2DEBFCDBF31
:1000F00000E00CBF12E0A0E0B2E0E4EDFEE000E0C2
:100100000BBF02C007900D92A631B107D9F722E0CC
:10011000A6E1B2E001C01D92A739B207E1F70E9443
:100120007A040C9468070C94000084EA8093BC0065
:100130008091BC0087FFFCCF80ED8093BB0084E8FA
:100140008093BC008091BC0087FFFCCF0895FC0128
:1001500027E030E080E041E050E09191913339F4C4
:10016000BA01022E01C0660F0A94EAF7860F2150E9
:10017000310998F70895E62FF0E0E55FFD4F908193
:1001800092B997B1907F21E030E001C0220F8A95AB
:10019000EAF7922B97B98091200290912102892B46
:1001A00011F0289A089528980895CF93DF93FC01C1
:1001B000EB01209120023091210240818181082EA3
:1001C000000C990B5AE04502800D911D1124232B40
:1001D000E1F40C9711F4108211828881813089F446
:1001E00020818181082E000C990B3AE02302800DBA
:1001F000911D11240C966AE070E00E94FF06608356
:1002000081831882DF91CF9108958D3091054CF054
:100210000C976AE070E00E94FF066083818381E0B2
:1002200088838081813021F49181923009F4888320
:1002300080818111E7CF81818111E4CF81E08083CA
:1002400082E08183DFCFFC0180916F008D7F8093FE
:100250006F0090912202209123028AE0022E000C6E
:10026000330B9802200D311D1124909124024091EE
:100270002502042E000C550B9802400D511D11242F
:100280008091200290912102892B71F42150310933
:100290002C30310518F44C33510584F080916F00F7
:1002A000826080936F00089528313105B8F74C3390
:1002B0005105A4F780911F028111F0CF9091220285
:1002C00080911B02981318C09091230280911C0208
:1002D000981312C09091240280911D0298130CC0B3
:1002E0009091250280911E02981306C090911F02E2
:1002F00080911A02981791F2809122028083809156
:10030000230281838091240282838091250283834A
:1003100080911F02FB0180836852724009F0BECFBA
:100320001092850010928400B9CFCF93DF93EC0137
:10033000AFE6B0E08C918D7F8C938881E2E2F2E0B1
:100340008083898181838A8182838B818383609387
:100350001F028081CBE1D2E0888381818983828101
:100360008A8383818B8380911F0280931A028C91F0
:1003700082608C93DF91CF910895E1E0F1E080817C
:100380008F7D8083E0EAF0E08081877F8083E1EAEF
:10039000F0E080818E7F8083E1E2F1E080818E7FDA
:1003A000808308958093BB0084E88093BC00809193
:1003B000BC0087FFFCCF0895CF93C82F0E94950003
:1003C0008C2F0E94D20184EA8093BC008091BC00F3
:1003D00087FFFCCF81ED8093BB0084E88093BC0055
:1003E0008091BC0087FFFCCF84E88093BC008091A3
:1003F000BC0087FFFCCF84E98093BC00CF910895B7
:100400001F920F920FB60F9211240BB60F922F93DB
:100410003F938F939F93EF93FF93809195029091D9
:100420009602892B69F580910001807120919302D9
:1004300030919402232B89F5811112C08091910291
:1004400090919202893C9105DCF0109292021092F8
:10045000910281E090E0909394028093930210C007
:1004600080919102909192028C3291404CF4809153
:100470009102909192020196909392028093910240
:10048000FF91EF919F918F913F912F910F900BBE14
:100490000F900FBE0F901F901895209193023091EE
:1004A00094022130310561F5209191023091920240
:1004B0002F5F3F4F3093920220939102811111C020
:1004C00080919102909192024597D4F210929202FB
:1004D000109291021092900210928F0282E090E0AE
:1004E000BACF809191029091920289974CF210922A
:1004F0009202109291021092940210929302C0CF35
:1005000020919302309194022230310509F0B8CF46
:1005100081112FC08091910290919202E0918F02FF
:10052000F0919002E55DFD4F03970CF580E3808329
:1005300080918F0290919002019690939002809307
:100540008F021092920210929102809191029091EA
:100550009202C3970CF494CF1092920210929102DF
:1005600081E090E09093960280939502C4CF81E35E
:10057000DECF809191029091920201969093920227
:1005800080939102E2CF1F920F920FB60F92112427
:100590000BB60F922F933F934F935F936F937F937D
:1005A0008F939F93AF93BF93EF93FF938091290213
:1005B00090912A02029709F44CC0809129029091EF
:1005C0002A02039709F445C0E09119020E2E000C8F
:1005D000FF0BEA5FFD4F6081809119020E94BB0012
:1005E00080912802882309F463C08091020180640D
:1005F00080930201809119028F5F8093190280918C
:100600001902843011F410921902809129029091FC
:100610002A028130910509F44FC008F44DC08230A0
:10062000910509F44FC0039709F44AC0FF91EF9177
:10063000BF91AF919F918F917F916F915F914F91FA
:100640003F912F910F900BBE0F900FBE0F901F90F8
:100650001895809118028F5F80931802809118027C
:100660008C3349F4109218029091170281E0911195
:1006700080E08093170290911902809126029813CE
:1006800004C08091170281110FC0E09119020E2E53
:10069000000CFF0BEE5DFD4F6081809119020E94FE
:1006A000BB0080911F029ECF809119026AE0F7CFB4
:1006B000809102018F7B9CCF80910A02882311F0E8
:1006C0002C9AB4CF2C98B2CF1F920F920FB60F92E4
:1006D00011248F939F93809116028F5F809316024F
:1006E000809116028F300CF49AC0109216028091FD
:1006F00009028F5F80930902809109028A303CF0E1
:1007000010920902809108028F5F80930802809105
:10071000080286303CF010920802809107028F5F39
:1007200080930702809107028A303CF01092070202
:10073000809106028F5F8093060280912002909143
:100740002102892B09F072C080910602813041F4A8
:1007500090910702933021F41092060280930702D1
:100760008091200290912102892BB9F48091060298
:10077000813099F480910702823079F480910802E7
:1007800081110BC080910902811107C0909128024C
:1007900081E0911180E0809328028091290290915C
:1007A0002A02892BE1F580910A028823C1F19091F8
:1007B000060280910202981332C090910702809144
:1007C000030298132CC090910802809104029813A0
:1007D00026C09091090280910502981320C0909143
:1007E00028028091270298131AC08091010180622B
:1007F000809301018091A00088608093A000809187
:10080000A10081608093A10080912101816080938B
:10081000210181E090E090932A02809329029F9128
:100820008F910F900FBE0F901F9018958091060228
:10083000823009F095CF80910702843009F090CF83
:1008400010920602109207028BCF1F920F920FB6E2
:100850000F9211240BB60F922F933F934F935F93F8
:100860006F937F938F939F93AF93BF93EF93FF9378
:1008700020910002309101022E5C3F4F3093010223
:100880002093000250E040E060E074E284EF90E0EA
:100890000E941307215031093093A9002093A8002A
:1008A0008091A8009091A900969587959093AD00AE
:1008B0008093AC008091000290910102803A9F40A9
:1008C00031F488EE93E09093010280930002FF914F
:1008D000EF91BF91AF919F918F917F916F915F91B8
:1008E0004F913F912F910F900BBE0F900FBE0F9025
:1008F0001F9018958091810088608093810080ED21
:1009000090E09093890080938800809181008560B9
:1009100080938100109285001092840080916F0076
:10092000826080936F008FEF81B9249A80910101DA
:10093000806480930101209A85B5846085BD809193
:100940006E00816080936E0080919100886080933A
:10095000910087E293E290939900809398008091B0
:1009600001018860809301016B9A80910201886087
:100970008093020180919100816080939100809129
:100980007100826080937100809101018062809388
:1009900001018091A0008B608093A0008091A10054
:1009A00089618093A1000E94BD0189E294E0909347
:1009B000A9008093A8008091A8009091A900969525
:1009C00087959093AD008093AC0080912101816068
:1009D000809321018091730082608093730088E886
:1009E00093E19093290180932801809164008F778F
:1009F000809364008091B90081608093B9008091F8
:100A0000B9008D7F8093B90086EC8093B80084E8AC
:100A10008093BC008091B0008E7F8093B000809165
:100A2000B0008D7F8093B0008091B100886080938A
:100A3000B1008091B1008F7E8093B1000E9495003B
:100A40008BE60E94D20180E00E94D20184E980936B
:100A5000BC00789454E9E52E6FE0D62EC3E0D0E0D8
:100A600002E010E08BE30E94DC01A090BB008CE36D
:100A70000E94DC01B12CBA2CAA248091BB00A80EE4
:100A8000B11C8DE30E94DC01C090BB008EE30E948C
:100A9000DC01F090BB008FE30E94DC018091BB0081
:100AA00080E40E94DC018091BB00E092BC00809158
:100AB000B10081608093B1008091B1008D7F8093FF
:100AC000B1008091B1008B7F8093B100D092B300D0
:100AD000B99A1092B20090E080E0883E23E092073D
:100AE00029F0B99BFACF0196B99AF7CF8091B1005E
:100AF000887F8093B10088E4A81A84EFB80A21E7C0
:100B0000A21627E1B20658F48C2D90E0982F882782
:100B10008F0D911D8854944F8137974160F08091DB
:100B2000290290912A02019731F40E94BD0110928E
:100B30002A02109229028091950290919602892BA7
:100B400009F490CFE0918F02F0919002E55DFD4FA6
:100B5000108280918F02909190028D5D9D4F0E9436
:100B6000A700F82E80918F029091900208979093A1
:100B7000900280938F02E0918F02F0919002E55DE8
:100B8000FD4F108280918F02909190028D5D9D4F5C
:100B90000E94A70020918F023091900228503109C5
:100BA0003093900220938F02109296021092950239
:100BB000982F9095F912BEC08A3509F4EEC008F05E
:100BC00046C0803309F4DFC050F4803109F4E1C03D
:100BD000883109F4DAC0823049F48CE408C08234E8
:100BE00009F4DDC068F5883309F4D5C08FE320919E
:100BF000290230912A022230310541F02091290248
:100C000030912A022330310509F02CCF90ED980F56
:100C10009A3008F093C0E09126020E2E000CFF0BD4
:100C2000EE5DFD4F9083809126028F5F80932602B8
:100C300080912602843009F015CF1092260212CF3F
:100C40008A3409F4AEC0823589F689E3D0CF883979
:100C500009F4ABC0E0F4883609F46EC08A3709F4B1
:100C600096C0823619F68091290290912A02892B2A
:100C7000C1F56091280286E092E00E9495011093F0
:100C80002A0200932902109226028DE4B0CF883AFE
:100C900009F48DC090F4823A09F0A8CF809129021E
:100CA00090912A02892B39F490910A0281E09111E6
:100CB00080E080930A0281E49ACF823C09F473C0F9
:100CC000823E09F093CF8091290290912A020197E8
:100CD00031F40E94BD0110922A021092290283E58C
:100CE00086CF8091290290912A02029789F468E2C6
:100CF00072E086E092E00E9423016091270282E088
:100D000092E00E949501D0932A02C0932902BBCFA2
:100D10008091290290912A02039709F0B4CF67E2EB
:100D200072E082E092E00E94230110922A02109267
:100D30002902A9CF85E45BCF80E359CF8F3279F4C4
:100D40008091200290912102892B09F08BCE909105
:100D50001F0281E0911180E080931F0283CE8235D3
:100D600009F461CF8C3409F07DCE80912602815048
:100D700080932602809126028F3F09F073CE83E094
:100D8000809326026FCE81E332CF82E330CF83E3BC
:100D90002ECF84E32CCF85E32ACF86E328CF87E3C9
:100DA00026CF88E324CF82E522CF8FE220CF68E2EE
:100DB00072E086E092E00E94D50067E272E082E095
:100DC00092E00E94D5006FE172E082E292E00E9420
:100DD000D5006AE172E08BE192E00E94D50020919B
:100DE00020023091210281E090E0232B11F090E06D
:100DF00080E0909321028093200280E5F8CE97FB5B
:100E0000072E16F4009407D077FD09D00E94320710
:100E100007FC05D03EF4909581959F4F08957095FD
:100E200061957F4F0895052E97FB1EF400940E9454
:100E30002A0757FD07D00E94460707FC03D04EF44F
:100E40000C942A0750954095309521953F4F4F4F70
:100E50005F4F089590958095709561957F4F8F4F66
:100E60009F4F0895AA1BBB1B51E107C0AA1FBB1FC0
:100E7000A617B70710F0A61BB70B881F991F5A9526
:100E8000A9F780959095BC01CD010895A1E21A2E95
:100E9000AA1BBB1BFD010DC0AA1FBB1FEE1FFF1F1E
:100EA000A217B307E407F50720F0A21BB30BE40B6E
:100EB000F50B661F771F881F991F1A9469F76095B5
:100EC0007095809590959B01AC01BD01CF0108956F
:040ED000F894FFCFC4
:100ED400E8030102010001020000013F065B4F66C6
:060EE4006D7D077F6F0029
:00000001FF
